:020000040000FA
:10000000A8790010897200009172000093720000BC
:1000100095720000977200009972000000000000C5
:100020000000000000000000000000006903000064
:100030009D72000000000000F10300004104000078
:1000400059020000A3720000A3720000A372000016
:10005000A3720000A3720000A3720000417A0000A6
:10006000CF790000A3720000011E0000A3720000FF
:10007000A3720000A3720000A3720000A37200002C
:10008000A3720000A3720000A3720000A37200001C
:10009000A3720000A3720000A3720000A37200000C
:1000A000A3720000A3720000A3720000A3720000FC
:1000B000598D0000A3720000A3720000A37200001B
:1000C000A3720000A3720000A372000000F002F807
:1000D00000F0ABF80AA090E8000C82448344AAF137
:1000E0000107DA4501D100F0A0F8AFF2090EBAE835
:1000F0000F0013F0010F18BFFB1A43F0010318475C
:1001000044ED010084ED01000A444FF0000C10F8AA
:10011000013B13F0070408BF10F8014B1D1108BF85
:1001200010F8015B641E05D010F8016B641E01F825
:10013000016BF9D113F0080F1EBF10F8014BAD1C75
:100140000C1B09D16D1E58BF01F801CBFAD505E093
:1001500014F8016B01F8016B6D1EF9D59142D6D3ED
:1001600070470000103A24BF78C878C1FAD8520707
:1001700024BF30C830C144BF04680C607047000021
:100180000023002400250026103A28BF78C1FBD8A0
:10019000520728BF30C148BF0B6070476E2909F075
:1001A000CD80702909F09881662912F0C2876529EF
:1001B00012F0BF87672912F0BC87612912F0BB8754
:1001C000692909F07F80642909F07C80752909F08C
:1001D00079806F2909F02481782909F070810368FA
:1001E000DB0928BF41F0800163290AF08A81732965
:1001F0000AF08F81E3290AF09A81002070471FB529
:100200009DE8030009F02FFD0AF03AFA04000020EF
:10021000002111F0BBFE401C60600020002111F0A5
:10022000CBFEE0601FBD10B510BD0AF05BFD1146AE
:10023000FFF7E5FF01F03EFD0AF079FD03B4FFF79B
:10024000F2FF03BC0AF0AAFD72B64FF0000070473F
:1002500062B64FF0000070474FF08040017821F007
:10026000040101701B484168491C416070471949ED
:10027000002048604FF0E0210120C1F80001800714
:100280001549416003210170AA21017255210172B3
:10029000012070470F480078002806D172B6AA21C5
:1002A000480701725521017262B6704700B5FFF729
:1002B000F1FF08490120087000BD4FF0804001782F
:1002C00021F0010101704FF0E0210120C1F880010F
:1002D0007047000044000010FFFF3F0000487047D7
:1002E000486F0010401ECAB210F8011F8A4202D0A7
:1002F0000029F9D10020704707F06DB87856341204
:1003000080F309887047EFF309807047684680F3EF
:10031000098804480078C00714BF0220032080F336
:100320001488704760E80100DFF818C0EFF3058318
:100330001B0618BF6047EFF31483DB0708BF604755
:1003400000DF704765FC0000DFF818C0EFF305839D
:100350001B0618BF6047EFF31483DB0708BF604735
:1003600000DF7047A9FE0000EFF30980816911F8F2
:10037000021C39BB90E80F10E047EFF3098C194BD2
:1003800093E80600914218D059B10CB44FF0010324
:1003900081F821302CE9F00FC1F824C010F008F8E2
:1003A0000CBC1A60D2F824C0BCE8F00F92F82130DF
:1003B0008CF309881BB192F82000CCF800006FF094
:1003C000020E704710B5084A1268914209D8074CCE
:1003D00054F8214090E80F10A047EFF3098C8CE807
:1003E0000F0010BD04C1072060B5000060B500001B
:1003F0000FF0F8FE114B93E8060091421BD00CB4AD
:100400004FF0000381F82130EFF3098C2CE9F00F55
:10041000C1F824C00FF0CCFF0CBC1A60D2F824C085
:10042000BCE8F00F8CF3098892F821301BB192F8E8
:100430002030CCF800306FF0020E704704C1072066
:1004400010F088F8D6E700000EF0B4FD10F082F846
:10045000D0E70000FA49012208281AD2DFE800F0AC
:1004600004080B0F111316254FF40053CB6510E051
:100470004FF4006301E04FF48063CB6109E0022395
:10048000FBE7CA6105E04FF0005301E04FF08053F5
:10049000CB63EC4B8240596E914308465966EA495A
:1004A0004860EA49886401F001BA4FF08063EFE7E1
:1004B000E349012208281AD2DFE800F004080B0FF4
:1004C000111316254FF400538B6510E04FF40063B1
:1004D00001E04FF480638B6109E00223FBE78A614E
:1004E00005E04FF0005301E04FF080538B63D54B94
:1004F0008240596E114308465966D3494860D34932
:10050000886401F0D3B94FF08063EFE770B5CD4D4B
:10051000002085F88100CE480078002845D1CD48DC
:10052000416821F440614160C16821F07361C1609C
:100530000168C94A11400160016921F0406101610F
:10054000BF48016A41F050510162016840F6034220
:1005500011430160016C41F4005101640024A86E54
:10056000E040C00709D0E0B2FFF7A2FF286FC8B192
:1005700080B2DFF8E8C200DF14E0E86EE040C007B8
:100580000DD0286EE040C00709D0E0B2FFF790FF21
:10059000286F38B180B2DFF8C4C200DF02E0E0B2F9
:1005A000FFF758FF641C082CD9D370BD70B5A8485C
:1005B0000025007801283AD1A648416821F440611D
:1005C0004160C16821F07361C1600168A24A1140B5
:1005D0000160016921F0406101619948016A41F0BF
:1005E00050510162016840F6034211430160016C01
:1005F00041F40051016401F067F9012804D001F0D1
:1006000063F9022803D004E08F48456801E08F4871
:10061000856C002425FA04F0C007E0B202D0FFF791
:1006200047FF01E0FFF716FF641C082CF2D370BDF2
:1006300070B50446082810D2824D002045F82400E9
:1006400005EB8400016A0164E0B2FFF731FF15F8A1
:10065000810F0121A1400843287070BD10B50446E8
:10066000302917D0312918D0322919D075483329AB
:10067000406E18D034291BD0794A0120A04013883D
:10068000452930D0442931D052292ED1BDE810401F
:10069000FFF70CBEBDE81040DCE6BDE8104007E700
:1006A000BDE81040C4E7E040C0070ED02046F1E7A7
:1006B000E1070CD0611EC840C00706D0C8B2FFF7E2
:1006C000C9FE0520DFF894C100DF2046E5E7611C84
:1006D000C840C007F9D0C8B2FFF7BCFE0520DFF85C
:1006E0007CC100DFF1E71843108010BD8343138005
:1006F00010BD70B55B49002400EBC0004518E0B2A6
:10070000295DFFF7ABFF641C082CF8D370BD70B5F2
:100710005549002400EBC0004518E0B2295DFFF701
:100720009DFF641C082CF8D370BD464988670020E3
:10073000C8674867012081F880007047414810B5BC
:10074000006F18B1BDE81040FF20EEE70024E0B2D2
:10075000FFF7AEFE641C082CF9D310BD10B50024C1
:10076000E0B2FFF777FE641C082CF9D310BD3548C2
:10077000006F08B10020D8E7F0E72DE9F041002430
:10078000304D26465FF0010705EB8400016C99B1FE
:1007900055F82420521C45F824208A420CD30664C4
:1007A00045F8246095F8810007FA04F1884385F83C
:1007B0008100E0B2FFF74EFE641C082CE4D3BDE8D4
:1007C000F08110B51F4C94F88000012820D1606F93
:1007D000401C6067216F88421AD300216167E06F77
:1007E000082803D3E16784F880100EE0A16F21FA96
:1007F00000F2D20703D0C0B2FFF75AFE05E009B9F4
:10080000C0F10700C0B2FFF725FEE06F401CE067B3
:1008100010BD70B50B4905460020096F39B10021A4
:1008200001226B5C312B21D0302B23D025E000241A
:10083000E0B2295DFFF712FF641C082CF8D370BDED
:1008400000C00920FC000010003F082000400240CA
:100850004200001000C00240F0FF0FFFB9FD000091
:100860001CC0072098060010E006001002FA01F3F1
:10087000184302E002FA01F39843491C0829D0D337
:10088000BDE8704051E70648016E002907D00549D0
:10089000406E0A68904202D0086001F064B8704768
:1008A000FC00001004C00720AA490020CA6822F4F6
:1008B0007F62CA604A6822F47F124A60A6490A6AC7
:1008C00022F470120A620A6822F0F0620A60A34AF7
:1008D00001461154401C0828FBD370472DE9F04312
:1008E000DFF87492D9F834009D4A5FEA40389B489B
:1008F0009A49A0F104004FF00104D0F800C04FF075
:1009000031054FF0000602F120034FF030071CD5EF
:1009100091F80080B8F1000F05D1D2F8008008F1FD
:100920000108C2F800800C701D704CF0010CC0F87A
:1009300000C0D9F834C0C8465FEA0C3C23D591F812
:1009400001C0BCF1000F05D00AE00E701F702CF042
:10095000010CECE7D2F804C00CF1010CC2F804C0A1
:100960004C705D70D0F800C04CF0020CC0F800C0B4
:10097000D8F834C05FEACC2C25D591F802C0BCF180
:10098000000F07D00CE04E705F70D0F800C02CF064
:10099000020CEBE7D2F808C00CF1010CC2F808C059
:1009A0008C709D70D0F800C04CF0040CC0F800C0F2
:1009B000D8F834C05FEA8C2C25D591F803C0BCF17F
:1009C000000F07D00CE08E709F70D0F800C02CF0A4
:1009D000040CEBE7D2F80CC00CF1010CC2F80CC00F
:1009E000CC70DD70D0F800C04CF0080CC0F800C02E
:1009F000D8F814C05FEA4C1C25D591F804C0BCF1AE
:100A0000000F07D00CE0CE70DF70D0F800C02CF0E3
:100A1000080CEBE7D2F810C00CF1010CC2F810C0C2
:100A20000C711D71D0F800C04CF0100CC0F800C063
:100A3000D8F814C05FEA8C1C25D591F805C0BCF12C
:100A4000000F07D00CE00E711F71D0F800C02CF021
:100A5000100CEBE7D2F814C00CF1010CC2F814C072
:100A60004C715D71D0F800C04CF0200CC0F800C093
:100A7000D8F814C05FEACC1C22D591F806C0BCF1AE
:100A8000000F07D00CE04E715F71D0F800C02CF061
:100A9000200CEBE7D2F818C00CF1010CC2F818C01A
:100AA0008C719D71D0F800C04CF0400CC0F800C0B3
:100AB000D8F814C05FEA0C2C14D5CE793EB109E009
:100AC0008E719F71D0F800C02CF0400CEEE7D66913
:100AD000761CD661CC71DD71016841F08001016046
:100AE000BDE8F083CE71DF71016821F08001F6E787
:100AF0001848416821F0C00141601748016821F49D
:100B00000021016070471448406900F400207047DC
:100B1000114B10B5586B4FF0010144020F484FF0D4
:100B2000000200F1080001D5417000E042705C6BEA
:100B3000240201D5C17000E0C2705C6BE40101D5F4
:100B4000017000E002705B6F9B0101D5817010BDE8
:100B5000827010BD00C0024000C009200CC00720F8
:100B60008001001010B5FA4A32231360C2E9010176
:100B700002F120011046F74A926A9047F44820306B
:100B8000006810BD10B5F24B332410C307C3F14AFF
:100B900046F2A8101860926A03F11001EC489047E1
:100BA000EB482030006810BDE94A10B534231360CB
:100BB000C2E9010146F2A810D06002F120011046FE
:100BC000E44A926A9047E2482030006810BDE04A4B
:100BD00010B535231360C2E9010102F1200110466E
:100BE000DC4A926A9047DA482030006810BDD84944
:100BF00010B53620D74A08602031926AD448904711
:100C0000D3482030006810BDD14910B53720D14AF3
:100C100008602031926ACE489047CD482030006865
:100C200010BD10B5CA4B382410C383E80700C94A69
:100C300003F11C01181F926A9047C54820300068D4
:100C400010BD70B5C34CC448A062FFF7FDFAC0499F
:100C50003A200860A26AA1F23C51BD489047FFF7D4
:100C6000F7FABE4C002004F1100200BF54F8201027
:100C700002F8201002EB80030D0A5D700D0C090EC6
:100C80009D70401CD9700428F0D370BD00224FF431
:100C90006031521C08C9FF2A08C0FAD900207047E9
:100CA00010B5AC4A0446AC489062FFF7CDFA152166
:100CB0000846FFF757FF15210846FFF775FF58B99B
:100CC00015210846FFF74EFF4FF4806221464FF48E
:100CD0006030FFF757FF18B1FFF7BAFA012010BDD7
:100CE000FFF7B6FA002010BD10B59A4A04469A489C
:100CF0009062FFF7A9FA1C210846FFF733FF1C2179
:100D00000846FFF751FF58B91C210846FFF72AFF94
:100D10004FF4806221464FF4E020FFF733FF18B113
:100D2000FFF796FA012010BDFFF792FA002010BDE0
:100D300000224FF44031521C08C9FF2A08C0FAD9DA
:100D40000020704710B5834A044683489062FFF73D
:100D50007BFA14210846FFF705FF14210846FFF728
:100D600023FF58B914210846FFF7FCFE4FF48062B8
:100D700021464FF44030FFF705FF18B1FFF768FA3E
:100D8000012010BDFFF764FA002010BD0020734958
:100D9000421E203141F82020401CFF28FAD970471C
:100DA00000206E490246203141F82020401CFF28D7
:100DB000FAD970472DE9F04188B0002501F0DCF93F
:100DC0000120DFF89CC100DF664F00246E464FF61D
:100DD000FF78002057F8251046F82010401C6D1CA5
:100DE0000828F7D308EA44100822694601F0CEF932
:100DF0000120DFF86CC100DF641C202CE9D301F076
:100E0000EBF808B0BDE8F0812DE9F041C0B0002555
:100E1000544F2C464FF6FF786E4600BF08EA042078
:100E20004022694601F008FA5FF0000056F82010F1
:100E300047F82510401C6D1C4028F7D3641C042C77
:100E4000ECD340B0DEE7424910B5002246482B39CA
:100E50008B5C8354521C042AFAD300228B1884180A
:100E60009B7D521C2372042AF8D300228B1884180D
:100E70009B7A521C2371042AF8D300228B18841801
:100E80009B7B521C2373042AF8D300228B188418EE
:100E90009B7C521C2374042AF8D32E4833490089C2
:100EA000C88010BD2A4810B52B38C0230370A82471
:100EB000447001218170A622C270FF228275C27522
:100EC0000276002242768372C472017341737221EA
:100ED0008173C1730174417408218174C1740175F7
:100EE00041751C49502008812049C88010BD1F4809
:100EF00031214269117042693221517042693321B6
:100F0000917042693421D170426935211171426971
:100F10003621517142693721917142693821D1716D
:100F20004069002101727047F0B50C4D0021AC3DC5
:100F300005F1480C01EBC10253190020312630277E
:100F400062447824814213D11E54175412E00000E9
:100F5000800C001004000010F11FFF1F4407001058
:100F6000B9FD0000C0010010242E08208C000010E4
:100F70001C541454401C0828E4D300201872491C47
:100F800010720829D6D3F0BDF0B5002693B03046D4
:100F9000354603AC2554401C4028FBD3F64800904E
:100FA00000F10C03A0F10C02F4A1204608F012F9A4
:100FB000402103A800F0F4FE074600202554401C01
:100FC0004028FBD3FFF73DFE0421EE4800F0F6FE7B
:100FD0000146EC4A002000BF52F82030401C1E445D
:100FE0000428F9D3D2E902020091CDE901203B4661
:100FF0003246E5A103A808F0EDF8E6490020225C9E
:101000000A54401C1028FAD3762008703520487006
:101010000D7413B0F0BDE04AE0490020135C0B549E
:10102000401C0628FAD3704770B5FFF70AFED54872
:101030001021103000F0A0FED749B822D14B0A7021
:1010400097224A705A228A7000221033CC789D5C15
:10105000521C2C4492B2CC70082AF7D34871000A73
:101060000871BDE87040D6E770B50020C549044658
:101070001C390C54401C1928FBD3C74800213438B4
:10108000C74D8471BC48143842186B181279491C3A
:101090009A700429F8D340F25B7028800120A8716F
:1010A0003C20C5F8C80000202918401C81F8874062
:1010B0004028F9D3BBA2B2A1E81D08F08BF80021AB
:1010C0006818491C80F847404029F9D3BDE87040B2
:1010D000B348B6A2AAA1473008F07CB80020B749AF
:1010E000421E00BF41F82020401CFF28FAD970475B
:1010F0002DE9F041FFF7F2FFA748A6493438F13156
:10110000AE4CCA78096862F31F61216004F695212C
:101110004A7ED1F8161062F31F61616004F69521D2
:101120004A7BD1F80A1062F31F61A16004F6952191
:101130004A7CD1F80E1062F31F61E16004F695213C
:101140004A7DD1F8121062F31F6121610521C1604F
:101150009B494969CB780A6863F31F626261CA7967
:10116000496862F31F61A1618C49CB780A6863F317
:101170001F62E26102898988924B62F31F412162FA
:1011800009210022C0F80C1003EB8205521C2D6AC5
:1011900044F82150491C082AF6D35A6E44F82120FD
:1011A000491C1A6E44F82120491C9A6E44F82120EB
:1011B000491C1A6F44F821204279C3791202491C54
:1011C00042EA034244F821208278C378491C42EA6B
:1011D000032203796B4E42EA0342437842EA0362F8
:1011E00044F821206C4A491C143AD378126863F3FE
:1011F0001F6244F82120684A491C103AD3781268CB
:1012000063F31F6244F82120491C0022AC3E06F122
:10121000480CC16002EBC205AB19521CD9781F689B
:1012200061F31F67C16844F82170DF795B68491C6E
:1012300067F31F6344F8213005EB0C03491CDF788A
:101240001D6867F31F6544F82150DD795B68491C10
:1012500065F31F6344F82130491CC160082AD9D3C3
:101260004F4A5179D2F8023061F31F63C16844F8E4
:1012700021301388B2F8C850491C43EA054344F8AA
:10128000213093798579491C43EA052344F82130BC
:10129000491CC160002102F5B47500BF05EB810354
:1012A000491CDF781E68C36867F31F6644F8236033
:1012B0005B1CC3600629F1D3C168002302EB8305E0
:1012C0005B1C95F88A60D5F8875066F31F6544F873
:1012D0002150491C102BF1D30023C16002EB830580
:1012E0005B1CAE7AD5F8075066F31F6544F82150B1
:1012F000491C102BF2D30023C0F80C1002EB83051D
:101300005B1C95F84A60D5F8475066F31F6544F8B2
:101310002150491C102BF1D3C1601A4B0021B83B5E
:1013200003EB8102491CD6781568C26866F31F6515
:1013300044F82250521CC2600329F1D3224AC168EA
:10134000536844F82130137A1578491C43EA052381
:1013500044F82130491C527A44F82120491CC160CC
:10136000FA21164800F02AFDC4F8FC031348FFF7E1
:1013700097FCBDE8F0411DE5C4E20100257325732B
:1013800025730000440700102578257825782578F6
:1013900025780000640B001038000010A400001035
:1013A000C00500107A6D6D71747400007A68656E06
:1013B0006D696E676469616E7A690000C001001032
:1013C0008C000010FC00001010F907200022FF49DB
:1013D00010B510460A23CA6601EB8004401C236244
:1013E0000828F9D30A6601208A66086710BD70B51F
:1013F0000022F74C30251046C2EBC201002304F84E
:10140000110004EB410148708870C870CE185B1C55
:101410003571082BFAD3521C4873102AECD370BDD7
:10142000EC484FF416514160002101720170012116
:101430004172704770B5FFF735FDFFF758FDFFF7B4
:10144000F3FDFFF7C3FFE44D00240120AC70EC7006
:101450002871E24A6C70204605F12001135C0B54A0
:10146000401C0428FAD3DC496C710020EC71243153
:101470000C54401C0428FBD3FFF756FDFFF7F4FD86
:10148000D749002001EB800201F82040547094708D
:10149000401CD4700328F5D32C70FFF7C1FFFFF771
:1014A000A6FFBDE8704023E61FB588B0202168463E
:1014B00008F048FB9DF820008DF800009DF8210001
:1014C0008DF801009DF822008DF802009DF82300A0
:1014D0008DF8030004216A46002008AB1C18401C4C
:1014E00024795454491C0828F8D3C9B2104600F096
:1014F00057FC0CB010BD2DE9F047BA48FFF7C6FB0A
:10150000FA21B84800F05AFCB34DB64C2861D4F823
:10151000FC13696188420ED0FFF776FCFA21204661
:1015200000F04CFCA861D4F8FC13E961884202D1B8
:101530002046FFF7B5FBD5E90401884203D0D5E981
:10154000060188427ED1A2482168E0300A0A017073
:1015500042700A0C8270090EC170616881750A0AB6
:10156000C2750A0C0276090E4176A16881720A0AD8
:10157000C2720A0C0273090E4173E16881730A0A90
:10158000C2730A0C0274090E4174216981740A0A3B
:10159000C2740A0C0275090E417593490520E86072
:1015A0004A69207D4FF000091070E8684A6934F8F4
:1015B0002000000A5070E8684A6954F82000000CC6
:1015C0009070E8684A6954F82000000ED070E8680E
:1015D0004B69401C14F820201A7134F820204B6904
:1015E000120A5A7154F82020120C4B699A7154F85F
:1015F00020204B69120E401CDA71774B54F82020E2
:101600003433160A1A705E70160C9E70120E401C4F
:10161000DA7054F820201A71160A120C5E712A81B1
:10162000CA80401C694A0021C5F80C0054F82030DB
:1016300002EB8106401C491C33620829F6D354F89A
:10164000201000E02FE1401CD16654F82010401C0F
:10165000116654F82010401C916654F82010401C6C
:10166000116754F82010401C0A0A6A71090CE971CC
:1016700054F82010A9700A0AEA700A0C2A71090E9F
:10168000401C6970544A54F8201020320B0A117023
:1016900053700B0C9370090ED170401C4E4954F8D6
:1016A00020202431130A0A704B70130C8B70120E19
:1016B000CA70401C4A4E00210C3606F14807E8600B
:1016C00054F8202001EBC10303EB0608F2544FEA63
:1016D000122C88F801C04FEA124C88F802C0120E92
:1016E000401C88F8032054F8202088F804204FEA92
:1016F000122C88F805C04FEA124C88F806C0120E6A
:10170000401C88F8072054F82020FA543B444FEA44
:10171000122C83F801C04FEA124C83F802C0120E5B
:10172000401CDA7054F820201A714FEA122C83F80A
:1017300005C04FEA124C120E83F806C0401CDA7145
:10174000491CE8600829BBD3DFF894C054F8201086
:10175000ACF1CC0C0A0A8CF802108CF803200A0CAD
:101760008CF80420090E401C8CF8051054F8201049
:10177000ACF80010090C401CCCF8C81034F820104C
:101780008CF80610090AA971401CE86000200CF5CD
:10179000B472EB6802EB800654F8231002F82010B4
:1017A0000F0A77700F0C090EB7705B1CF170401CAC
:1017B000EB600628EDD382F81890E8684B460021CC
:1017C00054F820200CEB810610E00000FC00001013
:1017D000750B001010F9072004000010B0E20100A2
:1017E0008C060010C00100108C00001006F8872F36
:1017F000170A7770170C120EB770401C491CF27054
:101800001029DDD3E8608CF8C630002154F8202080
:101810000CEB8106170AF2713772170C120E7772F1
:10182000401C491CB2721029F0D3E8608CF8463095
:101830005FF0000154F820200CEB8106170A06F82F
:10184000472F401C7770170C120EB770491CF270AE
:101850001029EFD3E8604E4A8CF886300020EB6800
:1018600002EB800654F8231002F820100F0A77705C
:101870000F0C090EB7705B1CF170401CEB60032865
:10188000EDD3444954F82320581C4A6034F82020F2
:101890000A72120A981C0A7014F820204A72D81C86
:1018A000E860BDE8F087BDE8F047C3E53A498860E5
:1018B0003A49C86480B270473948D0F8800180083E
:1018C000C00700D0012070473348D0E901108142A1
:1018D00002D109B1012070473048816CC26C91423D
:1018E00003D1806C08B102207047002070472DE9B9
:1018F000F04107462B4C0020054660602060A06048
:1019000004F1140620612AE026481430FFF7BEF9DE
:101910002448FA21143000F051FAD6F8FC1388421A
:1019200002D1A068401CA060FEF7B4FC0120DFF8E3
:1019300078C000DFFFF768FA1A48FA21143000F087
:101940003DFAD6F8FC13884202D12069401C206180
:10195000FEF7A0FC0120DFF850C000DF6D1CBD4287
:10196000D2D3BDE8F081114800210160012101714D
:1019700070470E480179002909D00168491C0160AF
:10198000052904D3002101710160FFF7B1BB704745
:101990008C06001010F90720003F0820004002408C
:1019A00000C00F40AC010010B9FD00003000001075
:1019B00006F0C4F8CD48017A406806F08FF800BF01
:1019C00006F00BFA0120DFF828C300DFF8E7FFF785
:1019D0008FF83220DFF818C300DF00BFFFF793F85D
:1019E00040B90A20DFF808C300DFFFF78CF808B918
:1019F000FEF7B4FEFEF7C1FEFEF7E3FEFEF743FF7F
:101A00000A20DFF8ECC200DFE8E71CB50024264618
:101A10002546274601F01DFEFEF746FFDFF8D4827B
:101A2000DFF8D4B2B548D8F80010CBF800106946FA
:101A3000025D0A55641C82468946082CF8D3FEF7DD
:101A400029FC0A20DFF8A8C200DF00BFFEF722FC55
:101A5000FEF744FFD8F80000DBF800105C4688422F
:101A600044D00520DFF888C200DFFEF737FFD8F842
:101A700000002168884239D0206000241AF8040050
:101A800019F8042090422ED09D4909F804000978E5
:101A9000012908D09B490988E140C90723D00128C2
:101AA0001AD0E8B11FE001281DD196480088E04017
:101AB000C00718D094480068E040C007E0B202D0E8
:101AC000FEF725FE01E0FEF714FE8F490120A0403D
:101AD0000A685040086006E0E0B2FEF70AFE02E045
:101AE000E0B2FEF714FE641C082CC7D367B1761C65
:101AF000092E06D3002601F0B4FD0520DFF8F0C161
:101B000000DF01F0B2FD04E06D1C642D01D301275C
:101B10000025FFF72EFF0A20DFF8D4C100DF95E78C
:101B200000250A20DFF8C8C100DFFEF7ECFFB0B9DE
:101B30005FF00004FEF7E7FF00B96D1C2820DFF816
:101B4000B0C100DF641C0A2CF4D3052D07D3FFF7C6
:101B500071FC0A20DFF898C100DFFFF7CCFC0CF025
:101B600085FE0AF09DFB69480078012828D0FFF720
:101B70006AF96748DFF89CC10168012000DF664808
:101B8000DFF890C10168012000DF644A03210020D2
:101B90000FF0F4FF6249087018B142F2A83110F05A
:101BA00031F804F0BBFE04F0E0FE00BF0DF0A4F835
:101BB00004F0F1FE04F018FFDFF868C100DFF5E77C
:101BC0000AF08CFBD5E70A20DFF85CC100DF4A4C45
:101BD000012500BF0FF0A2FFDFF850C1656000DFF4
:101BE000FEF758FBF6E7FFF7CFF900F0FFF9FFF734
:101BF00082FCFEF78BFCFFF70EFAFEF74BFB64212D
:101C00000020DFF82CC100DF1420DFF8E4C000DF83
:101C1000FEF740FB00231A460921AFF25500DFF81A
:101C200014C100DF444A45490023AFF20B10DFF82E
:101C300004C100DF0023424A42494348DFF8F4C0B0
:101C400000DF3549414A002308604149AFF2452091
:101C5000DFF8E0C000DF3E4900233E4A891CAFF2B6
:101C60009120DFF8D0C000DF394900233A4A091D2E
:101C7000AFF2C320DFF8BCC000DF3848807901280C
:101C800009D12E490023364A491D3648DFF8A4C041
:101C900000DF1F4908600020DFF8CCC000DF6420AF
:101CA000DFF84CC000DFFAE7432802D12F4807F0E5
:101CB00022BE7047FEF7DBFAFFF7FEFD2C490870E5
:101CC000FEF774FC01F092FC01F0C3FCFEF7E2FAAF
:101CD000FEF71CFB00221146AFF2F500DFF894C0BE
:101CE00000DFFEE7FEF7E2FAFEE7000010F907204A
:101CF000B9FD000008C0072020C007200CC0072045
:101D0000070000101CC0072000C0072005000010BD
:101D1000600000100DFE0000ACC007205948000014
:101D20002CC0072021070100C1FF0000D9FF0000DF
:101D300051070100D105010040C4072001800C00BB
:101D4000E0D3072004B0040081670000C0D0072062
:101D50000320030090D8072020C10720C0050010F1
:101D600048DE0720534D000065060100B0DB072068
:101D700042000010FD03010070B51E4DFF231A46FE
:101D800005F5807606E000BF10F8014B54402A5D4F
:101D90005A40335D491E09B2F6D242EA032070BDB3
:101DA00010B50022144C03E010F8013B5340E25CF4
:101DB000491EC9B2F8D2D043C0B210BDF0B58646B4
:101DC0004FF0FF3000230D4DC70710E05EF8236091
:101DD0003A46002400284FEA400000DA68401642E4
:101DE00000D068405208641C202CF3D35B1C8B424B
:101DF000ECD3F0BDD9E20100D9E40100B71DC10464
:101E00002DE9F04F6F4841684FF00803C9B211F057
:101E1000070F7BD14FEAE10C6B4D002705242026EC
:101E200004226A494FF0280B4FF0100A05F5967905
:101E3000BCF10C0F6AD2DFE80CF0690612202A2DE3
:101E40002A3C3F494D5D8F608B68EC185B1C8B60B2
:101E5000237883600260C0F818B001200AE04F6068
:101E60008B68EC185B1C8B60237883600260C0F881
:101E700018B002200860BDE8F08F0C68012C23D157
:101E80008C682544641C8C602C7884602DE00C6088
:101E900083610FE08F68D1F810C06745F0D3CD683B
:101EA0001DB1066003240C600EE00C60C0F800A0B9
:101EB0000AE006600260DEE74C68C968491E8C4291
:101EC00002D383618261D6E702601FE08361826191
:101ED0000C60D0E786684D6809EB05076D1C4D6006
:101EE0003E704D68CE68B54201D20A60ECE70C60E6
:101EF00082610BE086684D6809EB05076D1C4D603B
:101F00003E700C6083618261C0F800A08361B2E71B
:101F10002C4900206C228A6140220A6020220A603B
:101F20002A496FF07F420B68012B03D0904203D304
:101F30000020704701207047401CF4E72149002031
:101F400010220A6008228A616FF07F4202E090420C
:101F500003D2401C0B68DB06F9D4012070471C48F3
:101F600050F8C41F41F0800101601A48416821F017
:101F700070714160416841F0A071416011486C216D
:101F800081611421416101614FF0E0220115C2F825
:101F90000011402101600120704710B50B4C00205A
:101FA00020606060A060FFF7B3FF012803D0FFF757
:101FB000C5FF002010BD20680528FCD1FFF7BEFF3B
:101FC000012010BD00C00140F0DB07204C000010D4
:101FD00000C00F4000C00240B548016E41F0806172
:101FE0000166816F41F080618167704710B5012003
:101FF000FFF7B5FFFFF7F0FFAE48DFF8BCC200DF28
:1020000010BDAE4B10B503221A60AD4B00221A6012
:10201000062202EAD01242F0A003AA4A13705070BE
:102020009170FFF7BAFFA8490120086010BDA34BCB
:1020300030B406221A60A24C0023236002EAD012B8
:1020400042F0A0039F4A13705070080E9070080C65
:10205000D070080A1071517130BCFFF79EBF30B4C8
:10206000964D0023941C2C60954D2B60062404EAA9
:10207000D01444F0A005934C2570607006E000BFBA
:10208000E51811F8010BA8705B1CDBB29342F7D383
:1020900030BCFFF782BF894A10B502211160884A1F
:1020A00001211160062101EAD012864942F0A00305
:1020B0000B70487042F0A1008870FFF76EFF8348F4
:1020C000007810BD70B516467C4A0D4600240221EA
:1020D00011607B490E60062101EAD012794942F075
:1020E000A0030B70487042F0A1008870FFF755FF05
:1020F000764804E0015D641C05F8011BE4B2B442BB
:10210000F8D3012070BD10B56C4A0C460221116055
:102110006B4A0421116006216A4A01EAD01141F09C
:10212000A0031370507041F0A1009070FFF735FFCD
:102130006648C178827841EA02214278007841EA13
:10214000024141EA0060206010BD5948016E41F033
:1021500080610166C16F41F08061C167574903200A
:1021600008605748002101605648A0220270417063
:1021700049218170FFF711BF4D48016E41F0806128
:102180000166C16F41F08061C167704770B5154647
:102190000C460646FFF7F0FF4FF0FF3000EB8500DE
:1021A000B0F5957F2BD84FF6FF714248DFF820C17C
:1021B00000DF4249032000EB850008604049002011
:1021C00008604049A0200870300A48708E700020D6
:1021D0000DE001EB80022378D37023881B0A137172
:1021E00023681B0C537108CC1B0E9371401CA84232
:1021F000EFD3FFF7D2FE2F48DFF8D8C000DF70BD65
:1022000010B54FF6FF712B48DFF8C4C000DF2B4933
:10221000032008602A49012008602A480021A022E2
:10222000027041708170A121C170FFF7B6FE214894
:10223000DFF8A0C000DF10BD70B5054614464FF0B2
:10224000FF3000EB84000E46B0F5957F2ED84FF698
:10225000FF711848DFF878C000DF184903200860D4
:102260001749A00008601748A0210170290A417091
:102270008570A121C170FFF790FE002013490FE087
:1022800011F8203001EB8002557843EA0523957858
:10229000D2782D0445EA0262134346F82030401CF0
:1022A000A042EDD30348DFF82CC000DF70BD000072
:1022B00000C00920C0100010C50001005C00001023
:1022C00058000010F0DB072028C007201CDD072085
:1022D00081010100D50001002DE9F04707468EB0CD
:1022E000282009F00DFADFF8F89304460DF1200AD2
:1022F00004AD0DF11C0806AE2822214638460BF02D
:102300000BFA07462078002851D0F6A120460EF09F
:1023100074FB012809D104AAF3A1E01C07F0AAF973
:10232000F24904980880FFF71EFBF1A120460EF049
:1023300064FB01283CD0EFA120460EF05EFB012893
:102340004BD0EEA120460EF058FB01285CD0ECA14A
:1023500020460EF052FB01286BD0EBA120460EF078
:102360004CFB01287ED0EAA120460EF046FB012856
:1023700079D0E9A120460EF040FB012874D0E9A1F4
:1023800020460EF03AFB01286FD0E9A120460EF05E
:1023900034FB01286AD0E8A120460EF02EFB01286C
:1023A0007ED0E8A120460EF028FB012879D0BCE0C1
:1023B000CDE900682B1D04AAE4A1E01C07F05AF93E
:1023C000049989F80010059989F80110069989F88F
:1023D0000210079989F8031013E0CDE900682B1D5E
:1023E00004AADAA1201D07F045F9049989F816100E
:1023F000059989F81710069989F81810079989F82E
:102400001910FEF720FD33E0CDE900682B1D04AA6A
:10241000CEA1E01C07F02EF9049989F80A1005995D
:1024200089F80B10069989F80C10079989F80D1096
:10243000E7E70BAA0AABCDE900320DA90CA8CDE95C
:1024400002010AF1040308AAC3A1201D07F012F932
:10245000C94A0020514600BF11F820301354401CD7
:10246000062804E007E01DE031E033E035E0F3D377
:10247000FFF779FA59E0CDE900682B1D04AAB3A152
:10248000601D07F0F7F8049989F80E10059989F88E
:102490000F10069989F81010079989F81110B0E704
:1024A00028E035E0CDE900682B1D04AAA7A1601D36
:1024B00007F0E0F8049989F81210059989F81310CB
:1024C000069989F81410079989F8151099E7FEF70D
:1024D00035F92AE0FEF74BF927E004AA82A1E01DB6
:1024E00007F0C8F80498401E07281ED8C0B2FDF7B0
:1024F000DFFF1AE004AA7CA104F1080007F0BAF893
:102500000498401E072810D8C0B2FDF7A3FF0CE0C6
:1025100004AA75A1601D07F0ADF80498401E0728B5
:1025200003D80498401EFEF783F8002F7FF4E4AE32
:1025300020460AF0D5FC0EB0BDE8F0872DE9F04F3B
:102540008DB04FF0000B8846CDF818B0002874D13C
:102550000026282009F0D4F8044602AD0DF1140A33
:102560000DF110092822214640460BF0D5F880468F
:1025700020780027002873D080A120460EF03DFA75
:1025800001285BD07EA120460EF037FA012869D0E1
:102590007CA120460EF031FA012877D07AA120469E
:1025A0000EF02BFA01287ED079A120460EF025FAF4
:1025B00001286AD078A120460EF01FFA012870D0B9
:1025C00077A120460EF019FA01286BD076A120469B
:1025D0000EF013FA012879D074A120460EF00DFAFE
:1025E000012874D073A120460EF007FA01286FD09D
:1025F00071A120460EF001FA01286AD070A1204690
:102600000EF0FBF9012865D06FA120460EF0F5F918
:10261000012860D06EA120460EF0EFF901285BD0B2
:102620006DA120460EF0E9F9012856D06CA1204694
:102630000EF0E3F9012851D05FE1CEE3A078303805
:10264000C1B208290AD2684A01EBC1010020114435
:10265000221812790A54401C0828F9D301274CE1AA
:10266000DBE1FFE7A0783038C1B208290AD25F4A1F
:1026700001EBC10100201144221812790A54401CB8
:102680000828F9D339E101E00DE0B8E0E07830380E
:10269000112805D20121814055480288514001800E
:1026A00002E1C2E0CEE0534900200122C1F860B04F
:1026B00023185B79312B0B6E02FA00FC0FD023EA52
:1026C0000C03401C0B660828F2D3EDE0BCE0C1E02F
:1026D000C8E0ECE007E108E109E10AE10BE18BE089
:1026E000550C001068703D00256400000C000010BF
:1026F00069703D006D736B3D0000000067773D0021
:102700006D61633D0000000070646E733D00000069
:1027100073646E733D00000072656C61796F6E4189
:102720000000000072656C61796F66664100000010
:1027300072656C61796F6E0072656C61796F666647
:102740000000000070756C736500000025642E2584
:10275000642E25642E256400253032583A25303207
:10276000583A253032583A253032583A25303258C6
:102770003A25303258000000A40000106F700000AD
:102780006F6A000061726D0073735F620000000089
:1027900072725F73000000006A675F7400000000DF
:1027A000696F5F6200000000725F6500746F70699E
:1027B000630000007369700067726F75700000003D
:1027C000646863705F656E0061635F696E0000003E
:1027D000696E706C7573650069705F62000000005F
:1027E000726573657400000098060010E006001022
:1027F0001CC00720FC00001043EA0C0361E7FA4903
:1028000000200122C1F868B023185B79312B8B6E50
:1028100002FA00FC06D023EA0C03401C8B66082851
:10282000F2D341E043EA0C03F7E702AAAFF2481102
:10283000601D06F01FFF029800285EDB0146EA4893
:10284000016731E0E94800E0E948017881F00101E1
:10285000017029E0A11DE7480EF0AEF8E54981F8C6
:1028600018B021E02B1D02AAAFF22011CDE9009A89
:10287000601D06F0FFFEE278DF48029900EB82025D
:1028800002F8C41CE278039900EB820202F8C31C30
:10289000E278049900EB820202F8C21CE278059902
:1028A00000EB820000F8C11CFFF75DF825E06079BD
:1028B000312804D0322807D033280AD00EE0CF4880
:1028C000017881F0010108E0CC48017881F0020133
:1028D00003E0CA48017881F004010170FFF743F872
:1028E00003F0E8FE09E0C648AFE7C648ADE7C648D2
:1028F000ABE7C648A9E7FDF7D9FCC5A120460EF015
:102900007CF801287ED0C4A120460EF076F801287C
:1029100079D0C2A120460EF070F8012874D0C1A170
:1029200020460EF06AF801286FD0C0A120460EF0B4
:1029300064F801286AD0C0A120460EF05EF8012894
:1029400078D0BFA120460EF058F8012873D0BFA15F
:1029500020460EF052F801285FD0BEA120460EF0AE
:102960004CF8012868D0BEA120460EF046F8012898
:1029700073D0BCA120460EF040F801286ED0BBA158
:1029800020460EF03AF8012869D0BBA120460EF08F
:1029900034F801287ED0BBA120460EF02EF8012885
:1029A00079D0BAA120460EF028F8012874D0BAA137
:1029B00020460EF022F801286FD0BAA120460EF072
:1029C0001CF801286AD0B9A120460EF016F801289B
:1029D00071D0B8A120460EF010F801286CD0B7A134
:1029E00020460EF00AF8012867D0B7A120460EF065
:1029F00004F8012873D0B7A120460DF0FEFF01288E
:102A00006ED004E00AE018E02FE062E069E0B2A1D5
:102A100020460DF0F2FF012870D0C1E12B1D02AA63
:102A2000AFF2D821CDE9009A601D06F023FEAC4834
:102A300002997BE063E08CE094E006AAAFF25831A3
:102A4000A01C06F017FE069867490A2801EB8002D1
:102A5000AFF26C3104DA201D03E08EE095E098E0DF
:102A6000601D1C3206F006FE8AE12B1D02AAAFF2A1
:102A70002431CDE9009A04F1080006F0FBFD02982C
:102A80007B280ED103987B280BD104987B2808D192
:102A9000059804E084E088E032E149E158E17B28D0
:102AA0000CD09048029981700399C170049901710A
:102AB0000599417164E14FE150E153E18A48894948
:102AC00002798A704279CA7082790A71C079487134
:102AD00056E18448817981F00101817150E145E13D
:102AE00051E102AAAFF2004104F10A0006F0C2FD72
:102AF000029881B27B48C0F8C81041E14AE12B1D21
:102B000002AAAFF2B831CDE9009AA01D06F0B2FDDD
:102B100002987B2808D103987B2805D104987B284C
:102B200002D105987B2809D0704802990170039959
:102B30004170049981700599C17021E16A486B491F
:102B400002780A7042784A7082788A70C078C870B9
:102B500016E104F1090166480DF02EFF65490120D8
:102B600008701DE102AAAFF2804104F10A0006F0EC
:102B700081FD5C490298088002E1E11C5E480DF08D
:102B80001BFF5D4981F810B0FAE05648E11D87301F
:102B900003E0544804F10A01C01D0DF00DFFEFE001
:102BA000504804F109014730F7E70020534A012358
:102BB00021184979312902D0302908D00FE092F844
:102BC00000C003FA00F141EA0C01117007E092F82D
:102BD00000C003FA00F12CEA010C82F800C0401C8E
:102BE0000428E5D3CCE00000FC0000100600001033
:102BF0000A000010280700108C06001004000010C6
:102C00000500001008000010070000100900001067
:102C10007265697000000000727400006D71747458
:102C20005F6970006D7174745F656E006D717474AE
:102C30005F74696D6500000075705F697000000069
:102C40006669726D7761726500000000636C726680
:102C500069726D006D7174745F706F727400000042
:102C6000736E0000646F6D61696E00006D71747445
:102C70005F757365720000006D7174745F707377B7
:102C800000000000705F656E0000000062616E640D
:102C9000726174653D000000636865636B6269740E
:102CA0003D000000727373656E0000006D72746306
:102CB00070000000726D717474000000636F6D72BB
:102CC000656C617900000000646576616464723D42
:102CD0000000000070773D007077323D000000007A
:102CE00028000010C0050010B0E201002400001010
:102CF000CCEB0720B0C00720640B00100B000010C5
:102D000002AAAFF21C6104F1090006F0B3FC0298BC
:102D1000B0F5965F08D0B0F5165F05D0B0F5164F48
:102D200002D0B0F5E13F3BD10146F748416027E0D2
:102D300002AAAFF24C6104F1090006F09BFC029874
:102D4000012802D008B102282AD1EF49087217E001
:102D5000ED4981F800B013E0022100E00321EA48C8
:102D600001700DE0E8490120087009E002AAAFF205
:102D7000886104F1080006F07DFCE349029848727E
:102D8000FEF7F1FD0CE0E11C07A80DF015FE46F082
:102D9000010605E0211D0AA80DF00EFE46F0020610
:102DA000B8F1000F7FF4DEAB20460AF099F80FB1BE
:102DB000FEF7D9FD032E10D107A806F0C0FD82B2A0
:102DC0000AA907A80BF0CAFF012806D1CF4807A916
:102DD00040690DF0F1FDFEF7C6FD0DB0BDE8F08FC6
:102DE0002DE9FF4F044600230778C94831213022DE
:102DF0008FB01E46692F7DD015DC0DF1100A612FB2
:102E00001DD009DCC34D412F75D0422F74D0432F04
:102E100073D0532F72D197E2622F70D0642F52D0AB
:102E2000662FF7D1B0E2BA4D6C3F0A2F6D6E65D2B6
:102E3000DFE807F0EE64DCEDEC64EBEAE1E9A178B1
:102E4000B54869295CD006DC63292ED0672917D0E4
:102E50006829DFD106E06D2907D0702917D07329C2
:102E6000D8D11BE0AD480288C5E1427E017ECDE9A4
:102E70000012C37D827D211D109806F0ABF9ABE2F4
:102E8000427B017BCDE90012C37A827AF3E7427C70
:102E9000017CCDE90012C37B827BECE7427D017DA2
:102EA000CDE90012C37C827CE5E79D4881784579B5
:102EB0000379C2788DE82E0043780278211D10989E
:102EC00006F088F988E2974F974DDFF8608297F80F
:102ED000009094F802C02F7898F80050BCF1380F99
:102EE0006CD014DCDFF824B2ACF1300CBCF1080F6C
:102EF0009DD206E0ECE151E272E2A7E2FDE133E2AD
:102F0000AAE1DFE80CF0641E252838494B56BCF1D5
:102F1000640F5FD009DCBCF1390F55D0BCF1620FF2
:102F200040D0BCF1630F94D14BE08148BCF1650FF8
:102F3000007852D0BCF1660F52D0BCF1670F88D137
:102F400051E09BF8050008B17AA254E17BA252E15E
:102F5000DBF814204FE1806E0023554620FA03F77A
:102F6000FF0701D0E95400E0EA545B1C082BF5D3BD
:102F70008DF8186082E0056E0023504625FA03F7AD
:102F8000FF0701D0C15400E0C2545B1C082BF5D3ED
:102F90008DF8186002462EE1026F2CE1B9F1000FA6
:102FA0007ED169E1B9F1000F01D067A223E168A2E7
:102FB00021E10FB169A21EE162A21CE1002F70D1D4
:102FC0008FE2002F08D17AE1002DF5D0F2E7002D35
:102FD000F5D186E2002D08D16FE10028ECD0E9E7B9
:102FE0000028ECD17DE2002876D168E1A078302875
:102FF00099D15C4AFFE0A578412D0AD200EB85000B
:1030000050F8A42CF7E03CE28FE14AE205E1A1E1AF
:1030100057E1A5F14107202F04D200EB850050F8BD
:10302000C02CE8E0612D19D04F4A50484FF07B0882
:103030000CA9622D24D0632D57D0642D57D0652D57
:1030400058D0662D59D0672D58D0682D57D06A2D8D
:1030500056D06B2D55D06C2D54D0BEE1444B002082
:103060000DAD1B7823FA00F7FF0701D0295400E0CB
:103070002A54401C0428F5D38DF838602A46BAE05B
:10308000394E977890F800C0F578337976796745AE
:103090000ED190F801C065450AD190F802C001E058
:1030A000E8E021E2634503D190F803C066450CD007
:1030B00090F804C0674510D14779BD420DD185799C
:1030C000AB420AD1C079864207D1002001F80080C6
:1030D000401C0428FAD37FE0EFE0002013189B780F
:1030E0000B54401C0428F9D376E0128883E01D4875
:1030F00006747EE71F4B1B4AD1E13DE077E07CE0A0
:103100007EE081E084E0000010F907208C000010D0
:10311000FC000010750B0010550C00100C00001086
:10312000A4000010060000100700001008000010A6
:1031300005000010456E61626C656400446973614E
:10314000626C65640000000042696E64000000006B
:103150004E6F742062696E640000000063686563EE
:103160006B656400640B0010C0050010B0E2010044
:103170000B000010B8E20100DFF89CC3077862463C
:103180009CF8006055789378D278BE4208D1477891
:10319000BD4205D18778BB4202D1C778BA420BD075
:1031A0000779BE4210D14679B5420DD18579AB423F
:1031B0000AD1C079824207D15FF0000001F8008097
:1031C000401C0428FAD307E05FF000001CF8002040
:1031D0000A54401C0428F9D39DF833109DF832009E
:1031E000CDE900019DF831309DF8302043E690791B
:1031F000C00777D187E1211DC2E0D2F8C820FAE7E5
:10320000C64A211D1098BCE0211DD21D1098B8E0BF
:10321000C24A1098403A211DB3E0C148A278017813
:10322000462A47D00EDC342A21D006DC312A12D0BF
:10323000322A18D0332A60D117E0422A22D0442AF9
:103240005BD12AE0B748613A062A56D2DFE802F09D
:1032500004171C23272EB448C2788178CDE90012C8
:103260004378027807E6B14802E0B14AC3E7B148C3
:10327000007808B1B04ABEE7AF4A2332BBE7C807BF
:1032800071D131E1C807AEE6C2798179CDE900128A
:1032900043790279EFE5880709E088070BE0C27AF5
:1032A000817ACDE90012437A027AE4E548070028E2
:1032B00059DB19E14807002801DAA0A29BE7A1A287
:1032C00099E7A0783038082817DAC540E80706E003
:1032D000A078A0F13001082907DA9C49405C10B1C0
:1032E0009BA24CE00DE19EA249E0A149A14D3828E6
:1032F00004D0392808D061280BD06EE0086804E0BB
:10330000109805F067FF67E048680FF0B9FD29469F
:1033100003E088680FF0B4FD97490FF0D3FC0FF07D
:1033200043FC0B460246E11CEAE7A078612854D230
:103330003138082851DAC540E80702D07E4A1532F4
:103340001DE07D4A1C321AE0012000F0FAF98B4A98
:10335000A11C15E0A0783038C0B208283DD200EB9F
:10336000C000874918E0BCE0A178012030398840CE
:1033700084490988084201D083A200E084A2E11CAC
:10338000109805F027FF27E0A0783038C0B2082851
:1033900023D2814900EBC00042182CE7A078A0F1AD
:1033A0003001112906D2C0EBC00005EB4000A0F5AA
:1033B000287009E0A0F1410119290ED2C0EBC0002C
:1033C00005EB4000A0F2023081780091437802784A
:1033D000211D109805F0FEFE034698B213B0FDE4DF
:1033E000A078A0F13007112F18D200205346A778FB
:1033F000C7EBC70705EB4707A7F5805797F8637D2D
:10340000C740FF0701D0195400E01A54401C072898
:10341000EDD300BF8DF817601A46ECE64138192845
:10342000DBD200205346A778C7EBC70705EB470759
:10343000A7F5805797F8017DC740FF0701D01954C1
:1034400000E01A54401C0728EDD3E3E7A078A0F170
:103450003001112908D2C0EBC00005EB4002211D4C
:10346000A2F5277210988CE7A0F141011929B4D276
:10347000C0EBC00005EB4002211DA2F2FE22109815
:103480007FE7A078312806D0322806D03328A4D18F
:1034900042480268AFE6424AADE6424B424A211D2D
:1034A0002EE7A078414A302815D0312815D0114692
:1034B0003228097813D0332819D034281AD0352867
:1034C0001BD061281BD062281FD0632820D064281D
:1034D00083D1C1B915E052688DE6127A8BE60229D4
:1034E00002D1154AD21D86E6134A0E3283E603291D
:1034F000FAD1F6E70129F7D1F3E7527A7BE6022900
:1035000001D121A277E622A275E60329FBD1F8E7D3
:103510000129F8D1F5E7000024000010470600104B
:10352000040000108C060010280000100900001094
:10353000280700100A000010D9E50100456E6162FD
:103540006C65000044697361626C6500DCBF072034
:103550006C696768746F6E322E6A706700000000D5
:103560006C696768746F6666322E6A706700000067
:10357000A86D0010000020410000C842C00C0010DF
:10358000980600101CC00720656E61626C65000023
:1035900064697361626C6500E0060010B4C00720C6
:1035A000CCEB0720D0E20100C4E2010010F90720B3
:1035B0007047304A4FF488710020C2F8C8112E4974
:1035C000CB6823F44003CB60CB6843F48003CB602B
:1035D00041F2883104E0401C884201D3002070474A
:1035E000D2F8C8319B05F6D50120704770B501208F
:1035F00041F28834401CA042FCD3FCF74BFEFFF79D
:10360000D8FF0220401CA042FCD3FCF743FE1A481E
:10361000416A21F040614162184DD5F8800040F0C8
:103620000050C5F880004FF00056C5F89C6042F28B
:1036300028310220401C8842FCD3FCF72BFEC5F841
:1036400098600220401CA042FCD3BDE87040FCF70B
:1036500021BE0A48016C41F0040101640421C165E6
:10366000704706490420C8657047044904208865EE
:103670007047000000C00F4000C0024000C0092099
:103680002DE9F041064688B0FDA1FE4805F0A2FDF7
:10369000FC4C05466019FC4AFCA105F09BFD054465
:1036A0006019721CFCA105F095FD4719DFF8F48341
:1036B000C6EBC605E01918F81520FBA105F08AFD38
:1036C00008EB450507446A78E019FAA105F082FD88
:1036D0000744AA78E019FAA105F07CFD0744002010
:1036E000E9784FF0310C6A465FF0300321FA00F8B8
:1036F0005FEAC87802D002F800C000E01354401C12
:103700000728F3D34FF000088DF80780E019EFA1E8
:1037100005F060FD074485F80C802A1DE019EFA133
:1037200005F058FDC5196019721CF0A105F052FD95
:1037300005446019F1A105F04DFD08B02844BDE82D
:10374000F081FEB50646CEA1CE4805F043FDCD4C36
:10375000054636B1012E07D0022E08D0032E09D01F
:103760000EE06019E6A207E06019E7A204E0601924
:10377000E7A201E06019E8A2E9A105F02BFD0544EC
:10378000EA4900203123496E6A46302621FA00F7C3
:10379000FF0701D0135400E01654401C0828F5D34D
:1037A00000268DF808606019CCA105F013FD0544D2
:1037B000DF48DF4ADFA10672601905F00BFD054402
:1037C000E0480078002830D1DF4E30680FF058FB19
:1037D000DE4F39460FF076FA0FF0E6F902460B4657
:1037E0006019DBA105F0F6FC054470680FF048FB9A
:1037F00039460FF067FA0FF0D7F9671902460B4602
:10380000D8A1384605F0E6FC0544B0680FF038FB57
:10381000D9490FF057FA0FF0C7F9661902460B465F
:10382000D6A1304605F0D6FC05446019964AD8A1C9
:1038300005F0D0FC05446019B0A105F0CBFC28448C
:10384000FEBD70B505460024E0B2FCF731FE142041
:10385000DFF848C300DF641C082CF5D30024E0B275
:10386000FCF7F8FD1420DFF834C300DF641C082CDB
:10387000F5D30024E0B2FCF71BFE1420DFF81CC3D4
:1038800000DFE0B2FCF7E6FD1420DFF810C300DF34
:10389000641C0A2CEED32846FEF729F878A1794853
:1038A00005F098FC774C0646A019774A77A105F0F9
:1038B00091FC0644A019BA4ABAA105F08BFC064453
:1038C000BC482B46BCA18268A01905F083FC851971
:1038D0006019BEA105F07EFC0544601987A105F0C2
:1038E00079FC284470BD7CB506464FF4806165487C
:1038F00006F006F962A1634805F06CFC614D0446D0
:1039000005EB04000EB1B5A100E0B8A105F062FC22
:10391000BA4E044428193278B9A105F05BFC04447E
:10392000307810B1012803D007E02819B8A101E0D0
:103930002819BDA105F04EFC0444C148D0E902128B
:10394000CDE90012D0E900232819BEA105F042FC00
:10395000044428194C4A4DA105F03CFC04442819A4
:103960008F4A90A105F036FC04442819BB4BBC4A91
:10397000BCA105F02FFC0444BE4842790179CDE991
:103980000012C37882782819BBA105F023FC0444F7
:10399000BF48C2788178CDE90012437802782819AF
:1039A000BCA105F017FC04442819C0A105F012FCC5
:1039B00020447CBD2DE9F34F91B04FF0000904463F
:1039C000CDF82090BAA1CDF824900DF016F8DFF8CC
:1039D0005CA101284AD0B8A120460DF00EF80128BC
:1039E00045D0B7A120460DF008F8264D01283FD05C
:1039F000B5A120460DF001F80128F8D0B4A1204669
:103A00000CF0FBFF012834D0B3A120460CF0F5FFE9
:103A100001282FD0B2A120460CF0EFFFDFF8C882BA
:103A20000DF1100B06AE07AF012824D0AFA1204640
:103A30000CF0E3FF01281FD0AFA120460CF0DDFF02
:103A400001281AD0AEA120460CF0D7FFDFF824825F
:103A5000012813D0ADA120460CF0CFFF01280ED0D5
:103A6000ACA120460CF0C9FF012857E197E1A3E182
:103A7000BFE117E228E249E2A4E2B9E2D1E21AE3A7
:103A80007B000000C00C0010640B001022736E223B
:103A90003A222573222C0000226E756D223A25648D
:103AA0002C000000750B001022686F7572223A25F9
:103AB000642C0000226D696E223A25642C000000FF
:103AC00022736563223A25642C0000002277656525
:103AD0006B223A222573222C00000000226F75749D
:103AE000707574223A222573222C000022636D64C3
:103AF000223A2274696D6572256422007D0D0A00E8
:103B0000706F7374000000007374617465000000CE
:103B10007365747200000000696F73796E000000B5
:103B200022636D64223A222573222C00FC000010CF
:103B3000A001001022696E707574223A222573224A
:103B40002C00000010F90720A86D00100000204193
:103B50002268756D6964697479223A252E31662C64
:103B6000000000002263656E7469677261646522FB
:103B70003A252E31662C00000000C842226661689A
:103B800072656E68656974223A252E32662C0000D3
:103B900022736E223A22257322000000B9FD000034
:103BA000B8E201002268766572223A222573222C3F
:103BB00000000000AC01001022666C6173683122C5
:103BC0003A2225642F2564222C00000022636D64B4
:103BD000223A227A6D746573742200002263686150
:103BE0006E67656970223A312C00000022636861BB
:103BF0006E67656970223A302C00000042000010A8
:103C000022706F7765726D6F6465223A25642C00AF
:103C100022706F7765726D6F6465223A22706F77DC
:103C200065726F6E222C000022706F7765726D6F67
:103C30006465223A2272657374617274222C0000EA
:103C40004407001022636869706964223A2225756E
:103C5000257525752575222C00000000D0E2010095
:103C6000C4E201002266766572223A2225732D2570
:103C700073222C00C0050010226D717474697022CB
:103C80003A2225642E25642E25642E2564222C00DC
:103C9000B0E2010022686F73746970223A222564D1
:103CA0002E25642E25642E25642200007D00000050
:103CB000736574723D000000736574733D0000000D
:103CC000706C75736500000070756C7365000000A2
:103CD000726573746172740073746174653D000081
:103CE0007570646174650000B1C00720726562611F
:103CF000636B6669726D00006669726D000000009A
:103D00006465766963653D3F000000007A6D6C6F05
:103D100063616C00686F737469703D0070D0F7A1C7
:103D200020460CF06AFE01286BD0F6A120460CF06C
:103D300064FE04F10906012875D0F5A120460CF0B7
:103D40005CFE012870D0F5A120460CF056FE01283B
:103D50006BD0F3A120460CF050FE01287BD0F2A1DD
:103D600020460CF04AFE012876D0F0A120460CF047
:103D700044FE012871D0204601F0DDFD06006DD023
:103D8000ECA102F0FCF80546ECA1304602F0F7F891
:103D9000C06804287DD0E86804287BD0FEE30025B5
:103DA00060194179E8B2FCF759FC6D1C082DF7D376
:103DB000E44880F808900FE000200AA92218527900
:103DC0000A54401C0828F9D34C468DF83090084618
:103DD000FCF71FFDDB4804720220FFF7B2FCDA4952
:103DE000DAF864204A60D94A12688A6013B0BDE8E4
:103DF000F08FA0793D2805D0E0793D2816D035E038
:103E000098E2C9E2607930380890E0793F282BD0F9
:103E100004AACFA1E01D05F02DFC089A04990AEB35
:103E20008200C16120E0EEE212E336E308AAC8A1F5
:103E3000601D05F01FFC207A3F2815D004AAC4A1FC
:103E400004F1080005F016FC089B04980AEB8301B6
:103E5000C04AC86103E08BE3FCE3FCE3FCE30090B1
:103E6000BDA1C14805F0B6F9FDF77DFDAFF2F03117
:103E7000BD4805F0AFF90446B64A2819AFF2F4314F
:103E800005F0A8F9089A04440AEB8200C3692819CE
:103E900001E0EDE3EDE3B5A105F09CF90444281938
:103EA000B6A131E3FCF702FAAFF22C41AE4805F0BF
:103EB00091F90446A74A2819AFF2304105F08AF972
:103EC00004442819B1A11FE3A0793F2804D0B348C6
:103ED0000078012805D017E00120FFF732FC0646E4
:103EE00012E0002560198079302802D0312804D0F2
:103EF00006E0E8B2FCF7AEFA02E0E8B2FCF7D8FA66
:103F00006D1C082DEED3002630466FE798F80000B0
:103F1000012842D0A24900204A460A54401C2028C9
:103F2000FBD388468DE8C0015E4632469DA1A01DA8
:103F3000331D05F09FFBA04C002000BF16F8201099
:103F40002154401C0428F9D3AFF2CC41864805F037
:103F500041F906467F4AA819AFF2D04105F03AF977
:103F6000E178A278CDE90021CDF808800644637895
:103F70002278A81991A105F02DF98419281999A181
:103F800005F028F904442819AFF2E02105F022F9E0
:103F9000984A01212044117028E7AFF21C51724861
:103FA00005F018F904466B4A2819AFF2205105F0C4
:103FB00011F90444281990A105F00CF904442819BA
:103FC00088A1A1E298F80000012873D1FCF76EF9EE
:103FD000AFF25451644805F0FDF804465D4A2819D3
:103FE000AFF2585105F0F6F80444281988A18BE285
:103FF000AFF274515C4805F0EDF80446554A2819B3
:10400000AFF2785105F0E6F804448648009028198C
:10401000854B864A86A105F0DDF80444281989A15C
:1040200072E2AFF2A451504805F0D4F80446494A70
:104030002819AFF2A85105F0CDF804447B4A28199D
:10404000AFF2A04105F0C6F80444281908F10702B0
:1040500080A105F0BFF804442819834A83A105F024
:10406000B9F80619864CE178A078CDE900016378AB
:104070002278A81983A105F0ADF80644E179A0796A
:10408000CDE9000163792279A81983A105F0A2F88E
:104090008649841928190A8885A105F09BF8884962
:1040A000044428190A8887A105F094F804442819C3
:1040B00088A129E231E3AFF238612B4805F08AF894
:1040C0000446244A2819AFF23C6105F083F8044401
:1040D0002819204A83A105F07DF8874E0444281949
:1040E00086A1326905F076F80444281988A172691E
:1040F00005F070F8044428198AA105E26D71747402
:1041000069703D006D71747474696D653D000000E7
:104110006D717474706F72743D00000061726D0097
:1041200074696D6572000000414553005A4D544555
:10413000535400006F757470757400007765656B7B
:1041400000000000A00100102CC0072008C00720BC
:1041500025640000640B001025733A706C7573655C
:1041600025643D2564000000C00C001022706C75B1
:1041700073652564223A25642C00000022636D6477
:10418000223A22706C7573652200000022636D6410
:10419000223A227265737461727422000A00001060
:1041A000CCEB07205B25642E25642E25642E256428
:1041B0005D3D25730000000024000010227570642E
:1041C000617465223A227570646174696E67206655
:1041D0006F726D2025642E25642E25642E256420A3
:1041E0002573220022636D64223A22757064617423
:1041F00065220000B0C007202275706461746522DA
:104200003A22697320696E206170702200000000FC
:1042100022636D64223A2272656261636B66697221
:104220006D220000D0E20100C4E20100B8E201000A
:104230002266766572223A2225732D25732D257309
:10424000222C000022636D64223A226669726D227C
:1042500000000000226D7174745F75736572223AFC
:10426000222573222C00000007060010226D7174B5
:10427000745F707377223A222573222C00000000AD
:10428000242E0820226970223A2225642E25642ECD
:1042900025642E2564222C00226777223A22256489
:1042A0002E25642E25642E2564222C00400000104B
:1042B000227463706F7274223A25642C000000002F
:1042C0000C0000102268747470706F7274223A25AA
:1042D000642C000022636D64223A2264657669636F
:1042E00065220000226465766963656E616D6522F2
:1042F0003A222573222C00008C000010226874746E
:10430000705F75736572223A222573222C000000BB
:1043100022687474705F707377223A222573222C9E
:104320000000000022636D64223A227A6D6C6F6394
:10433000616C2200E0793F2812D0CDE900675E462B
:10434000331D04AAF9A1E01D05F094F9FA490020F3
:1043500016F820200A54401C0428F9D3FDF703FB6B
:10436000AFF6E401F54804F035FF0446F44A281995
:10437000AFF6E80104F02EFF0444EF48C2788178DC
:10438000CDE90012437802782819EEA104F022FF4B
:1043900004442819F1A1B7E0E0793F2813D0CDE912
:1043A00000675E46331D04AAE0A1E01D05F062F936
:1043B0000020414616F820200B18401C9A70042853
:1043C000F8D3FDF7D0FAAFF64811DC4804F002FF4D
:1043D0000446DB4A2819AFF64C1104F0FBFE98F8AE
:1043E000052098F80410CDE90012044498F8033031
:1043F00098F802202819AFF2807104F0EBFE044413
:104400002819DAA180E0607A3F280AD008AAAFF222
:10441000C021304605F02EF90899C8F8C810FDF7FC
:10442000A2FAAFF6A411C54804F0D4FE0446C44A6B
:104430002819AFF6A81104F0CDFE04442819CFA125
:10444000D8F8C82004F0C6FE04442819CFA15BE0C8
:10445000607A3F280AD004AAAFF20C31304605F04A
:1044600009F90498A8F80000FDF77DFAAFF6F011FD
:10447000B24804F0AFFE0446B14A2819AFF6F41171
:1044800004F0A8FE0444B8F800202819C4A104F0E0
:10449000A1FE04442819C6A136E008AAAFF25031A3
:1044A000E01C05F0E7F80899C64F481EC64EDFF835
:1044B0001C8308284CD2607931282FD0302830D086
:1044C000AFF644219D4804F085FE04469C4A281915
:1044D000AFF6482104F07EFE089A044402EBC200C5
:1044E00083192819BAA1093B04F074FE089A044400
:1044F00002EBC20101EB08032819BAA1093B04F041
:1045000069FE04442819BCA104F064FE044428197F
:10451000AFF6680104F05EFE204467E401203880B5
:1045200001E0A7F8009001EBC10100208A1901EB1E
:104530000803211802EB000CCD790CF8095C1D185A
:10454000097C401C05F8091C0828F2D3FDF70BFA7A
:10455000089A02EBC20000EB08013044093809391F
:10456000CDE900013B88A7A1744804F033FE3DE487
:10457000E0793F2834D0207A3F2831D009AB08AA0F
:10458000A4A1601D05F076F8089A102A70DC099B3A
:10459000642793FBF7F007FB103000E0BAE03C28FB
:1045A0002CD29E4DC2EBC20105EB410142F21076C6
:1045B00001F80C0C93FBF6F006FB103090FBF7F0C3
:1045C0003C281DD201F80D0C93FBF6F0182819D2E7
:1045D00001F80E0C12980A2A3FDA1E2817D062E062
:1045E00008AAAFF29441601D05F044F80898401EF7
:1045F0000F2876D8C0B2FFF743F886E488A102E01E
:104600008AA100E08CA14D4804F0E4FD7DE4002087
:10461000012223189B7B312B02D0302B06D00CE0DB
:1046200011F80B3C02FA00F6334304E011F80B3C9E
:1046300002FA00F6B34301F80B3C401C0728E8D30C
:10464000002022180B18927D401C03F80A2C082821
:10465000F7D328E03DE040E060E01F2823D10020B0
:1046600001222318DB7B312B04D0302B08D00EE045
:1046700037E038E011F80B3C02FA00F6334304E06F
:1046800011F80B3C02FA00F6B34301F80B3C401C56
:104690000728E6D3002022180B18D27D401C03F80F
:1046A0000A2C0828F7D30E220DA80E3905F0B1F90F
:1046B0000DAC94E80F00FCF7F7FE0899C1EBC101BF
:1046C00005EB410101F8010CFDF74DF90898401E7A
:1046D00090E70120FFF707F917E43220FFF7B1F860
:1046E00013E4002011E400242869015DE0B2FBF727
:1046F000B5FF641C082CF7D35249032081F80890B9
:10470000FFF71FF804465048DAF8641041604F493B
:1047100009688160304600F0B0FC04E04CA1074815
:1047200004F058FD0446204636E4000025642E259A
:10473000642E25642E25640024000010C00C001097
:10474000640B001022686F73746970223A2225642A
:104750002E25642E25642E2564222C0022636D6490
:10476000223A22686F7374697022000022636D64BC
:10477000223A226D7174746970220000226D717486
:104780007474696D65223A25642C000022636D649F
:10479000223A226D71747474696D65220000000004
:1047A000226D717474706F7274223A25642C00004B
:1047B00022636D64223A226D717474706F72742278
:1047C000000000001CC00720E00600109806001042
:1047D0002273656E63655F6F66662564223A2225E3
:1047E00073222C002273656E63655F6F6E256422F1
:1047F0003A222573222C000022636D64223A226142
:10480000726D220061726D25643D25642625732634
:104810002573000025643D25642F0000750B0010F2
:104820006F7574206F662073656300006F75742068
:104830006F66206D696E00006F7574206F6620686A
:104840006F757200A00100102CC0072008C007205F
:104850006572726F72000000F8B5054633480F4666
:10486000069900781646854201D00020F8BD18460A
:10487000FFF7A0F8044680B20DF070F9034675B159
:1048800000202B4902E00A5C1A54401CA042FAD3D3
:10489000A0B200903246394628460DF071FA012048
:1048A000F8BD70B523A394B00FCB10AC84E80F0013
:1048B000402224A1684605F0F1F8324E00246D46EE
:1048C00006EB041205EB041010A903F0C4FF641CEE
:1048D000E4B2042CF4D314B070BD1CB57B208DF869
:1048E000040039208DF805000C208DF80600FC200E
:1048F0008DF807000120FEF7F6FF044680B20DF0A8
:104900002DF9034600200A4902E00A5C1A54401CB3
:10491000A042FAD31C480078002806D0A1B200912A
:1049200042F2A83201A90DF02BFA1CBD2CC00720C1
:10493000C00C0010696F747A6F6E65323031366169
:1049400062636465706F7274203C466F756E64615B
:1049500074696F6E2F466F756E646174696F6E2E29
:10496000683E2023696D706F727420706F727420BE
:104970003C466F756E646174696F6E2F466F756E1D
:1049800064617469C8EA0720A6C00720F0B5FF4B30
:10499000FF4E05465A68B0688F1806F11804874222
:1049A0000BD2002003E01618A65D2E54401C88424E
:1049B000F9D35A680846111809E0801A002103E06B
:1049C0005718E75D6F54491C8142F9D3B1685960AB
:1049D000F0BD2DE9F043ADF27C4DAFF24F024FF444
:1049E0008065294605A802F098FA0926E74FE84CA9
:1049F0004FF00308022823D005A94FF00409092825
:104A000030D00D282CD0032816D10DF58B6002ABC9
:104A1000021F83E82300001DCDE900020DF274435C
:104A20001C320DF58D61103002F026F9DDF86804B6
:104A300048B32670052038600DF27C4DBDE8F08348
:104A40002B4605AA694601A802F0C4F8012802D144
:104A50009DF8000018B12670C7F80080ECE702202E
:104A60006060E9E7CDE9001502AB04AA012103A8C3
:104A700002F0CCFB029818B12670C7F80090DBE773
:104A800084F80080D8E740210DF2144005F05AF870
:104A9000C04AC1A10DF2144004F09CFB15220DF296
:104AA0001441DDF8640404F069FF50B10DF2544084
:104AB00003C8FEF77FFF60610028BDD084F8009036
:104AC000BAE7DDF85804FF28B6DCB64909780329AF
:104AD000B2D182B20020DDF8541403F07EF8ABE7C7
:104AE0002DE9F04100250127A9480926A74C0629F0
:104AF0001ED2DFE801F0030709031D0E457306709F
:104B0000276015E0477313E04573067002202060AC
:104B10000EE0802B08D29E4E0021183602E0575C32
:104B20007754491C9942FAD383606560FFF751FFBF
:104B30000020BDE8F08170B505464FF0FF34AFF2BC
:104B40005F034622002102200CF090F89049087380
:104B500040B1002340F25B7229460BF0FBFF08B125
:104B6000012801D0204670BD002070BD70B50446FC
:104B700015460E46C0B20BF083FF90B1E0B20CF0C8
:104B80003BF90CF041F80146002002E0325C0A5487
:104B9000401CA842FAD3AAB2E0B20CF01FFE0020DB
:104BA00070BD4FF0FF3070BD30B5784CADF2044DA4
:104BB00008347D4DE0603C2020830120A076042055
:104BC0002072E81D04F0BBFE88B1E81DEA1D77A144
:104BD000206404F0FFFA05F14700054604F0AFFE3B
:104BE00028B128462A4671A1E56404F0F3FA674A21
:104BF0004FF480610832684601F069FF024664485C
:104C00006946007BFFF7B2FF0DF2044D30BD00B5E1
:104C1000ADF2144D0021CDF80C145D4901230C397F
:104C2000002208600DF20C400093CDE901109902BA
:104C300003A802F0A6FA0246554803A9007BFFF735
:104C400095FF0DF2144D00BD10B5ADF5886D04460D
:104C500020210DF21C4004F075FF4E4A54A10DF2C4
:104C60001C4004F0B7FA4A480DF21C410C38524A75
:104C70000160CDE90524D0E90120CDE90320002021
:104C80000090CDE90101034602464FF4806107A878
:104C900002F0E3F902463E4807A9007BFFF766FFF2
:104CA0000DF5886D10BD10B5ADF58C6D0446402135
:104CB0000DF21C4004F046FF364A40A10DF21C40A4
:104CC00004F088FA32480DF21C410C383A4A01606F
:104CD000CDE90524D0E90120CDE903200020009092
:104CE000CDE90101034602464FF4806107A802F0B6
:104CF000B4F90246264807A9007BFFF737FF0DF5F8
:104D00008C6D10BD00B5E5B04FF4C871684601F078
:104D1000A9FF02461E486946007BFFF727FF65B0E2
:104D200000BD10B5E4B04FF4C871684601F098FFBB
:104D3000174C02466946207BFFF718FF207B0BF0DB
:104D400077FE207B0BF0B8FE207B0CF02BFD64B0CF
:104D500010BD00208AB00646804608904FF4967039
:104D6000DFF864C000DF01224FF6FF711046DFF864
:104D70005CC000DF0C488730044604F0E0FD0A4DBB
:104D800030B3204601F0D8FB012822E038C00720CC
:104D900014EB0720640B0010257363747272617743
:104DA0000000000010F90720C00500102573000066
:104DB0002573737461746500C00C001025737374DF
:104DC0006174657261770000B9FD00006DFE00003E
:104DD0000AE009D1804800216B18425C491C9A7096
:104DE0000429F9D3FCF7BFFD7C4C4FF0030B4FF0C7
:104DF000000A4FF0090920780A287AD2DFE800F08B
:104E00000517284E46C4DEDECFCB84F80DA0C4F8CB
:104E100010A02988A81CFFF78EFE401C01D001209D
:104E200014E06F4884F8009006210160C8E0002774
:104E3000607B012806D00A20DFF8A8C100DF7F1CB4
:104E4000642FF5D36848FFF7AFFE02202070B7E06B
:104E50002021684604F076FE634A64A1684604F0A7
:104E6000B9F96846FFF7D3FE3220DFF878C100DFDA
:104E70002021684604F066FE5B4AAFF2E401684612
:104E800004F0A8F96846FFF7C2FE04E06069FFF786
:104E9000DBFEC4F814A084F800B091E060680D282F
:104EA00028D0206940F2EE21401C2061884204D3C2
:104EB0004B4884F80090072101604E484E49406EEF
:104EC0000968884205D14D494D4F09683A689142B9
:104ED00013D04949086049480168494801600020E9
:104EE000FEF72FFCFFF7B0FE0A20DFF8F8C000DF66
:104EF0001EE063E0C4F810A0DFE7D5F8C81008F1A1
:104F0000010801EB8101B8EB410F14D34FF0000809
:104F10004046FEF716FC37494A6E37490A60374962
:104F200009683960FFF790FE0A20DFF8B8C000DF9B
:104F300084F800B009E00898401C0890B0F5FA7FAA
:104F400003D900200890052020702E4800780328FF
:104F500036D14FF480612C4804F0D2FD2A4901205B
:104F600002F071FE48B3294FC7F800A0FFF79BFE7F
:104F70000A20DFF870C000DF4FF48061224804F09F
:104F8000BFFDC7F800A01BE0FFF7BCFE0A20DFF85A
:104F900054C000DF7FE7FFF7C4FE082056E7642017
:104FA000DFF840C000DF01276420DFF838C000DFF1
:104FB0007F1C0A2FF8D384F800A001E084F8009049
:104FC0001348761C864202D30026FBF76FF90A20AD
:104FD000DFF810C000DF0EE799C0072014EB0720B0
:104FE00038C00720B9FD0000640B001025736374FE
:104FF00072000000FC00001030C0072008C007202D
:1050000034C0072010F90720C00C00100000001069
:10501000002F0D00F8488068704770B505000C46F9
:1050200001D00CB108E009B1012070BD002070BDB5
:105030000028FCD0641C6D1C287804F0BEF80646DD
:10504000207804F0BAF886422878F1D004F0B5F858
:105050000546207804F0B1F8281A70BDE64910B171
:10506000026822B902E0E548086003E0E34A0A600A
:10507000406800B9E2484860704770B50446DE4EAB
:1050800019E0A0892568C0050AD4A06820B1FFF7FF
:10509000F4FFA089C00503D4206908B1716888476E
:1050A000A089800503D4206A08B1716888477168B7
:1050B000204688472C46002CE3D170BD2DE9F34FE4
:1050C000002583B00C46CF490120CDE90051029064
:1050D00020782E462F46A846A9462D2804D1002028
:1050E000C949641CCDE900012078302800D1641C36
:1050F00020783138082816D814F8010B30380DF014
:10510000F0F982468B460022C04B284631460DF00E
:105110003BFA52465B460CF065FF054620780E468A
:1051200030380928E8D920782E2824D16078302812
:1051300041D339283FD8641C14F8010B30380DF0E6
:10514000D0F982468B460022B04B284631460DF0FE
:105150001BFA52465B460CF045FF05460E46002200
:10516000A84B384641460DF035FC07462078884666
:1051700030380928E0D92078652801D045281AD18F
:1051800014F8010F2B2802D02D2810D000E0641C49
:105190006FF02F012078A0F13002092A0BD809EB1B
:1051A000890201EB420200EB0209641CF2E74FF0B6
:1051B000FF300290EBE7029909FB01F00DF091F945
:1051C0003A4643460CF00EFF02460B4600208F493C
:1051D00009F0F2FE07468846DDE900012A4633461B
:1051E0000DF0D2F93A4643460DF0CEF9039AC2E9E2
:1051F00006010DF047F90399486103980321C16046
:1052000005B02046BDE8F08F2DE9F041040009D03B
:1052100023683BB1A26850186168814204DB98188A
:10522000BDE8F0810020FBE7401E40EA600040EA54
:10523000A00040EA2010704F40EA202040EA2046BB
:10524000761C39683046884705000BD0D4E9001237
:1052500004F0DFFB796820688847C4E90056A0683D
:105260002844DDE779682068884700206060206076
:10527000D8E72DE9F04707460E46D7E90645002254
:10528000DFF87481DFF888911346204629460DF037
:10529000BDF80FD126B102213046FFF7B5FF03E07C
:1052A000D8F8001002208847060071D059A0008865
:1052B00030806DE078690DF014F922462B460DF030
:1052C00089FB21F0004100224B460DF021F91ED848
:1052D000514A524B204629460DF01AF917D80022A0
:1052E0004F4B204629460DF04DFA10D826B1152116
:1052F0003046FFF789FF03E0D8F8001015208847F3
:10530000060045D047A17A6903F064FF40E026B16A
:1053100040213046FFF778FF03E0D8F80010402026
:105320008847060034D02046294607F06BFD224608
:105330002B460DF04FFB21F0004100224B460DF0B3
:10534000E7F80BD8204625F00041374A374B0DF0DF
:10535000DFF803D222462B4635A116E025F00041A6
:1053600020460F46344A354B0DF0D2F806D320467E
:1053700039460022324B0DF005FA03D222462B4665
:1053800030A102E022462B462FA1304603F022FF37
:105390003046BDE8F0870178A1F13002092A01D832
:1053A00011460AE0A1F14102052A01D8373904E08B
:1053B000A1F16102052A6AD857390A0110F8011FC4
:1053C000A1F13003092B01D8303A0AE0A1F14103E1
:1053D000052B01D8373A04E0A1F16103052B56D81B
:1053E000573A11440A0110F8011FA1F13003092BAB
:1053F0002CD8303A35E000006400001043900000E3
:10540000B99000000000F03F0000F0BF0000244011
:105410000000B03C300000000000C0FFFFFFDF4193
:105420000000E0C12564000044F3C2E4E4E9634CF9
:10543000252E3066000000008DEDB5A0F7C6B03E09
:1054400065CDCD412565000025660000A1F1410331
:10545000052B01D8373A04E0A1F16103052B16D8DA
:10546000573A114440780901A0F13002092A01D8C5
:10547000303904E0A0F14102052A02D83739084446
:105480007047A0F16102052A01D85739F7E70020DB
:1054900070472DE9F0470C460646481C227800214B
:1054A000F84B222A06D000209C6072E7401C5C2A40
:1054B00000D1401C0278222A02D00AB1491CF5D141
:1054C000481C19688847051EEFD0601C2C464FF415
:1054D000806788E05C2903D004F8011B401C82E04F
:1054E00000F101084078722814D006DC622809D047
:1054F000662809D06E2808D10AE074280CD07528D7
:1055000003D10BE0082000E00C2004F8010B68E058
:105510000A20FAE70D20F8E70920F6E708F1010074
:10552000FFF739FF8146A0F55C4008F10408B84256
:1055300057D3B9F1000F54D0A9F55840B84217D24B
:1055400098F801005C284CD198F80200752848D1E1
:1055500008F10300FFF71FFFA0F55C4108F1060802
:10556000B9423ED2C9F3090161F39F2000F58039A9
:105570000420B9F1800F02D20120641C2AE0B9F5A1
:10558000006F02D20220A41C06E0B9F5803F02D2CF
:105590000320E41C0EE0241D022813D0032809D0A8
:1055A00004281DD109F0BF0141F0800104F8011D5C
:1055B0004FEA991909F0BF0141F0800104F8011D7B
:1055C0004FEA991909F0BF0141F0800104F8011D6B
:1055D0004FEA9919AC49095C41EA090104F8011D37
:1055E000044408F101000178222902D000297FF447
:1055F00071AF002121700178222900D1401C0421C3
:10560000C6E90315C5E62DE9F05F0F4600250446FF
:10561000294609E0531E1F2B14D3222A12D05C2ADC
:1056200010D000221143401C0278002AF2D1DFF88A
:10563000549293464FF0220AD9F8002021B1E4B1E8
:10564000264636E00122EDE7061B27B1F11C38465D
:10565000FFF7DAFD01E0F01C9047050042D080F82A
:1056600000A0681CD0460746214604F044F9B91949
:1056700007F8068081F801B060E027B103213846C1
:10568000FFF7C2FD01E00320904704002AD07FA16C
:1056900004F031F92046BDE8F09F41467CA0FAF7BE
:1056A00021FE08B16D1C03E0B8F1200F00D26D1D82
:1056B000761C3078B0F1000801D06D1CEDD127B117
:1056C000E91C3846FFF7A0FD03E0D9F80010E81CFC
:1056D0008847050006D080F800A05646681C4FF0A9
:1056E0005C0825E00020D6E71F2907D9222905D02C
:1056F0005C2903D000F8011B641C19E000F8018B41
:1057000014F8012B414607460C2A20D006DC082A53
:105710001BD0092A21D00A2A06D11AE00D2A1AD054
:10572000222A0FD05C2A0BD05BA103F053FD781D19
:1057300021780029D8D1067080F801B02846AAE760
:10574000397000E03E70401CF2E7622006E06620FF
:1057500004E06E2002E0722000E074203870781CB3
:10576000E6E72DE9F04105460878464E7B2801D052
:10577000B16032E00620E860481C00F07DFE07467C
:1057800000787D2813D000F05AFE041EA8600FD0C8
:10579000384600F071FE01462046FFF77AFE00F021
:1057A0006BFE002804D02169002721622BE0781CC1
:1057B00036E5B06011E0401C00F05EFE0146204678
:1057C00000F028F800F058FE051EF1D028782C28AB
:1057D00005D028787D281BD0B560002020E500F09A
:1057E0002EFE0028E4D0206044600446681C00F0CF
:1057F00043FE01462046FFF74CFE00F03DFE002828
:10580000D6D021692162276101783A29D3D0D0E727
:10581000681C05E570B50C0005461FD0042220A1C8
:10582000204604F0ABF8D8B105221FA1204604F0B1
:10583000A5F8C0B104221EA1204604F09FF8B0B123
:105840002078222818D02D2803D0A0F13001092972
:1058500032D821462846BDE870402FE4002070BDB4
:105860000220E86006E00020E860601D70BD0120B5
:10587000E8606861201D70BD21462846BDE8704083
:1058800007E6000064000010A7E7010022220000E4
:10589000225C080C0A0D09007525303478000000E0
:1058A0006E756C6C0000000066616C736500000032
:1058B00074727565000000005B2804D07B2808D056
:1058C000FA488460CAE721462846BDE8704000F0E7
:1058D000DDBD21462846BDE8704042E72DE9F04194
:1058E00090460E46044600F0AAFDF04F05004FF02A
:1058F0000000B86015D0204600F0BEFD01462846E5
:10590000FFF788FF04000ED0B8F1000F0FD020463B
:1059100000F0B2FD0446007848B12846FFF7ADFB21
:10592000BC6000207CE42846FFF7A7FBF9E706B13E
:105930003460284674E400221146CFE72DE9FE4F7B
:10594000824607204FF0000B0090DAF80800154659
:105950000C461F465E46CDF808B001E00068761C94
:105960000028FBD1D1490A682EB1002F7ED0BE6835
:1059700045B3022127E03FB10DB1211D00E0032115
:105980001846FFF741FC04E00DB1201D00E00320A4
:10599000904701006BD07B200870481C5DB10A2243
:1059A00000F8012B00220923641E02E000F8013BED
:1059B000521CA242FADB7D2202700022427008468D
:1059C000BDE8FE8F01218846491C1846FFF71CFCE4
:1059D0000028F5D07B2100F8011B15B10A2100F841
:1059E000011B4FF0000980F80090B968641C01EBBE
:1059F0000800B860DAF8088060E08DB121463846CA
:105A0000FFF702FC0028DBD00021092203E000BFE1
:105A100000F8012B491CA142FADBB8682044B860A9
:105A20003946D8F82000FFF7EEFD384600F013FDA8
:105A3000B8600DB1022000E00120824601463846E0
:105A4000FFF7E2FB0028BBD03A2100F8011B0DB1A3
:105A500009210170B9683B4601EB0A00B8602A468B
:105A60002146404600F007FA384601E045E062E092
:105A700000F0F1FCB8600DB1012100E00021D8F880
:105A8000000000B1012001EB000A0AF101013846D3
:105A9000FFF7BAFB002893D0D8F8001011B12C21E1
:105AA00000F8011B15B10A2100F8011B80F80090D5
:105AB000B96801EB0A00B860D8F80080B8F1000FAF
:105AC0009BD10DB1611C00E002213846FFF79CFB21
:105AD000002898D04DB100260921641E03E000BFC4
